:02000002B0004C
:1040000000400B00D6CE0B00000006000C0005029D
:084010000401B41400000000DB
:044018001CB50B00C8
:1040200081F0004102E000BF83F0004330B54FEA69
:1040300041044FEA430594EA050F08BF90EA020FD6
:104040001FBF54EA000C55EA020C7FEA645C7FEA69
:10405000655C00F0E2804FEA5454D4EB5555B8BF8C
:104060006D420CDD2C4480EA020281EA030382EAFD
:10407000000083EA010180EA020281EA0303362D8F
:1040800088BF30BD11F0004F4FEA01314FF4801C62
:104090004CEA113102D0404261EB410113F0004F74
:1040A0004FEA03334CEA133302D0524263EB43032B
:1040B00094EA050F00F0A780A4F10104D5F1200EC9
:1040C0000DDB02FA0EFC22FA05F2801841F1000124
:1040D00003FA0EF2801843FA05F359410EE0A5F1F8
:1040E00020050EF1200E012A03FA0EFC28BF4CF029
:1040F000020C43FA05F3C01851EBE37101F00045DF
:1041000007D54FF0000EDCF1000C7EEB00006EEBEB
:104110000101B1F5801F1BD3B1F5001F0CD3490875
:104120005FEA30004FEA3C0C04F101044FEA4452CC
:1041300012F5800F80F09A80BCF1004F08BF5FEA53
:10414000500C50F1000041EB045141EA050130BD33
:104150005FEA4C0C404141EB0101013C28BFB1F545
:10416000801FE9D291F0000F04BF01460020B1FA90
:1041700081F308BF2033A3F10B03B3F120020CDA63
:104180000C3208DD02F1140CC2F10C0201FA0CF041
:1041900021FA02F10CE002F11402D8BFC2F1200CA6
:1041A00001FA02F120FA0CFCDCBF41EA0C0190405C
:1041B000E41AA2BF01EB0451294330BD6FEA0404A5
:1041C0001F3C1CDA0C340EDC04F11404C4F1200290
:1041D00020FA04F001FA02F340EA030021FA04F3A2
:1041E00045EA030130BDC4F10C04C4F1200220FAF9
:1041F00002F001FA04F340EA0300294630BD21FA37
:1042000004F0294630BD94F0000F83F4801306BFFC
:1042100081F480110134013D4EE77FEA645C18BFF0
:104220007FEA655C29D094EA050F08BF90EA020F87
:1042300005D054EA000C04BF1946104630BD91EA7F
:10424000030F1EBF0021002030BD5FEA545C05D182
:104250004000494128BF41F0004130BD14F58004C1
:104260003CBF01F5801130BD01F0004545F0FE4135
:1042700041F470014FF0000030BD7FEA645C1ABF6A
:10428000194610467FEA655C1CBF0B46024650EAA1
:10429000013406BF52EA033591EA030F41F40021CD
:1042A00030BD00BF90F0000F04BF0021704730B553
:1042B0004FF4806404F132044FF000054FF0000128
:1042C00050E700BF90F0000F04BF0021704730B5E9
:1042D0004FF4806404F1320410F0004548BF4042BE
:1042E0004FF000013EE700BF42004FEAE2014FEA13
:1042F00031014FEA02701FBF12F07F4393F07F4FEE
:1043000081F06051704732F07F4208BF704793F0F0
:104310007F4F04BF41F40021704730B54FF4607403
:1043200001F0004521F000411CE700BF50EA010206
:1043300008BF704730B54FF000050AE050EA0102AF
:1043400008BF704730B511F0004502D5404261EB1F
:1043500041014FF4806404F132045FEA915C3FF460
:10436000D8AE4FF003025FEADC0C18BF03325FEAFD
:10437000DC0C18BF033202EBDC02C2F1200300FAAE
:1043800003FC20FA02F001FA03FE40EA0E0021FAD3
:1043900002F11444BDE600BF70B54FF0FF0C4CF4C1
:1043A000E06C1CEA11541DBF1CEA135594EA0C0F73
:1043B00095EA0C0F00F0DEF82C4481EA030621EAAE
:1043C0004C5123EA4C5350EA013518BF52EA0335E9
:1043D00041F4801143F4801338D0A0FB02CE4FF09B
:1043E0000005E1FB02E506F00042E0FB03E54FF0CB
:1043F0000006E1FB03569CF0000F18BF4EF0010EC3
:10440000A4F1FF04B6F5007F64F5407404D25FEABE
:104410004E0E6D4146EB060642EAC62141EA555171
:104420004FEAC52040EA5E504FEACE2EB4F1FD0CB3
:1044300088BFBCF5E06F1ED8BEF1004F08BF5FEA31
:10444000500E50F1000041EB045170BD06F00046E3
:1044500046EA010140EA020081EA0301B4EB5C0490
:10446000C2BFD4EB0C0541EA045170BD41F4801188
:104470004FF0000E013C00F3AB8014F1360FDEBFAD
:10448000002001F0004170BDC4F10004203C35DA89
:104490000C341BDC04F11404C4F1200500FA05F30C
:1044A00020FA04F001FA05F240EA020001F00042AD
:1044B00021F0004110EBD37021FA04F642EB060123
:1044C0005EEA430E08BF20EAD37070BDC4F10C044D
:1044D000C4F1200500FA04F320FA05F001FA04F211
:1044E00040EA020001F0004110EBD37041F10001FD
:1044F0005EEA430E08BF20EAD37070BDC4F1200508
:1045000000FA05F24EEA020E20FA04F301FA05F26F
:1045100043EA020321FA04F001F0004121FA04F217
:1045200020EA020000EBD3705EEA430E08BF20EAE7
:10453000D37070BD94F0000F0FD101F00046400021
:1045400041EB010111F4801F08BF013CF7D041EAA3
:10455000060195F0000F18BF704703F000465200A7
:1045600043EB030313F4801F08BF013DF7D043EA78
:104570000603704794EA0C0F0CEA135518BF95EA2E
:104580000C0F0CD050EA410618BF52EA4306D1D1B5
:1045900081EA030101F000414FF0000070BD50EAD4
:1045A000410606BF1046194652EA430619D094EA5E
:1045B0000C0F02D150EA013613D195EA0C0F05D148
:1045C00052EA03361CBF104619460AD181EA03019C
:1045D00001F0004141F0FE4141F470014FF0000054
:1045E00070BD41F0FE4141F4780170BD70B54FF0EF
:1045F000FF0C4CF4E06C1CEA11541DBF1CEA13556F
:1046000094EA0C0F95EA0C0F00F0A7F8A4EB050450
:1046100081EA030E52EA03354FEA013100F0888047
:104620004FEA03334FF0805545EA131343EA126310
:104630004FEA022245EA111545EA10654FEA0026C5
:104640000EF000419D4208BF964244F1FD0404F57E
:10465000407402D25B084FEA3202B61A65EB0305DA
:104660005B084FEA32024FF480104FF4002CB6EB97
:10467000020E75EB030E22BFB61A754640EA0C0017
:104680005B084FEA3202B6EB020E75EB030E22BF57
:10469000B61A754640EA5C005B084FEA3202B6EB98
:1046A000020E75EB030E22BFB61A754640EA9C0057
:1046B0005B084FEA3202B6EB020E75EB030E22BF27
:1046C000B61A754640EADC0055EA060E18D04FEAE5
:1046D000051545EA16754FEA06164FEAC30343EA85
:1046E00052734FEAC2025FEA1C1CC0D111F4801F52
:1046F0000BD141EA00014FF000004FF0004CB6E74B
:1047000011F4801F04BF01430020B4F1FD0C88BFE9
:10471000BCF5E06F3FF6AFAEB5EB030C04BFB6EBF4
:10472000020C5FEA500C50F1000041EB045170BDE7
:104730000EF0004E4EEA113114EB5C04C2BFD4EB14
:104740000C0541EA045170BD41F480114FF0000E98
:10475000013C90E645EA060E8DE60CEA135594EA14
:104760000C0F08BF95EA0C0F3FF43BAF94EA0C0F17
:104770000AD150EA01347FF434AF95EA0C0F7FF48C
:1047800025AF104619462CE795EA0C0F06D152EAE0
:1047900003353FF4FDAE1046194622E750EA4106C4
:1047A00018BF52EA43067FF4C5AE50EA41047FF4D5
:1047B0000DAF52EA43057FF4EBAE12E74FF0FF3C3A
:1047C00006E000BF4FF0010C02E000BF4FF0010C0B
:1047D0004DF804CD4FEA410C7FEA6C5C4FEA430C84
:1047E00018BF7FEA6C5C1BD001B050EA410C0CBFD3
:1047F00052EA430C91EA030F02BF90EA020F002035
:10480000704710F1000F91EA030F58BF994208BF9B
:1048100090422CBFD8176FEAE37040F00100704758
:104820004FEA410C7FEA6C5C02D150EA013C07D1AF
:104830004FEA430C7FEA6C5CD6D152EA033CD3D0FA
:104840005DF8040B704700BF8446104662468C46F4
:104850001946634600E000BF01B5FFF7B7FF002827
:1048600048BF10F1000F01BD4DF808EDFFF7F4FF50
:104870000CBF012000205DF808FB00BF4DF808EDDB
:10488000FFF7EAFF34BF012000205DF808FB00BFFE
:104890004DF808EDFFF7E0FF94BF012000205DF820
:1048A00008FB00BF4DF808EDFFF7CEFF94BF0120D5
:1048B00000205DF808FB00BF4DF808EDFFF7C4FFCE
:1048C00034BF012000205DF808FB00BF4FEA410C17
:1048D0007FEA6C5C02D150EA013C0AD14FEA430CFA
:1048E0007FEA6C5C02D152EA033C02D14FF0000037
:1048F00070474FF0010070474FEA410212F5001275
:1049000015D211D56FF47873B3EB625212D94FEA16
:10491000C12343F0004343EA505311F0004F23FA00
:1049200002F018BF404270474FF00000704750EA55
:10493000013005D111F0004008BF6FF00040704712
:104940004FF00000704700BF4A0011D212F500126C
:1049500011D20DD56FF47873B3EB62520ED44FEAD7
:10496000C12343F0004343EA505323FA02F0704757
:104970004FF00000704750EA013002D14FF0FF3095
:1049800070474FF0000070474FEA4102B2F1E04338
:1049900024BFB3F5001CDCF1FE5C0DD901F0004C26
:1049A0004FEAC0024CEA5070B2F1004F40EB830076
:1049B00008BF20F00100704711F0804F21D113F1A2
:1049C0003872BCBF01F00040704741F480114FEADB
:1049D0005252C2F11802C2F1200C10FA0CF320FA64
:1049E00002F018BF40F001004FEAC1234FEAD32381
:1049F00003FA0CFC40EA0C0023FA02F34FEA4303EB
:104A0000CCE77FEA625307D150EA01331EBF4FF073
:104A1000FE4040F44000704701F0004040F0FE408E
:104A200040F40000704700BFD0B50C4B0022064692
:104A30000F46FFF7B1FCFFF787FF0446FFF732FC94
:104A4000074B0022FFF7A8FC02460B4630463946CA
:104A5000FFF7EAFAFFF778FF2146D0BD0000F03DEE
:104A60000000F04110F8012B11F8013B012A28BF8A
:104A70009A42F7D0D01A7047034613F8012B002A48
:104A8000FBD1181A0138704738B5002200230446BC
:104A90000D46FFF7F3FE28B920462946BDE8384009
:104AA000FFF7C2BF204605F10041FFF7BDFF4042BE
:104AB00061EB410138BD00BF09480A49884208B589
:104AC00005D0094A824202D0121A04F028FD074894
:104AD000074A0021121A04F030FD014808BD00BF4A
:104AE00044E00320CCCC0B0020E2032020E2032092
:104AF000F0E7032070B5074E074C04F07DFAA41BC5
:104B0000A4080025AC4200D170BD56F8043B98477C
:104B10000135F7E784CC0B00A8CC0B0000F03CBEBD
:104B200008B500F07FFCBDE8084004F01DBA03F0B2
:104B30009DB803F09BB803F0A1B803F09FB8000044
:104B400008B5034A03490C2002F0DCFFFEE700BF72
:104B500065770B0030B50B000078B0FA80F04009A3
:104B60007047012303707047014B01221A70704790
:104B700068E30320436913B183690C301847704719
:104B800013B500210446084602F08CFD00232046A0
:104B900001A9019302F09EFD019C0CB10123237138
:104BA0000021012002F07EFD2CB1236820469B6885
:104BB00098470023237102B010BD012A02D1016081
:104BC00000207047022A04BF0B680360F8E70368FF
:104BD0001847000008B502F0CDFD034B1860BDE892
:104BE000084002F0CBBF00BF28E7032010B5836860
:104BF000044613B1032201469847204610BD000029
:104C000037B5134B036004468068C8B100256FF0C8
:104C10000043CDE9003502212B462A4602F062FD11
:104C2000A068294602F08EFD237903F0FF0513B139
:104C300002F030FDF8E7A068294602F043FDA560C8
:104C400004F10C00FFF7D2FF204603B030BD00BFD7
:104C50002CB60B0010B50446FFF7D2FF20461C21EE
:104C6000FFF76BFF204610BD03682BB142689342EB
:104C700002D2184604F04BBC0020704738B50568D6
:104C8000044645B143689D4205D22846FFF7F4FE2D
:104C9000013005442560204638BDF8B50446476814
:104CA0000D4621B903687A1C4260D955F8BD084603
:104CB000FFF7E2FEA368461CF2199A42F6D8206874
:104CC00032462946384404F02AFC6068304460606B
:104CD000ECE7000038B504460B46D0E90101256831
:104CE000044A091A284402F0D9FF636801300344DA
:104CF000636038BD45B50B0038B504460B46D0E9B6
:104D000001012568044A091A284402F0C7FF6368B4
:104D100001300344636038BD48B50B0010B5074C43
:104D2000204601F0A9FB0121204601F0ECF9002208
:104D30004FF00113C4E9042310BD00BFDCE20320DF
:104D400010B50F4CFFF7EAFF0E49204603F0FAF9C1
:104D50000D4B022193ED000A204603F007FB0B499F
:104D6000204603F0EFF90A4B204693ED000A02219A
:104D700003F0E2FA2046BDE8104001F0EBBD00BFB1
:104D8000DCE203204CB50B0070E3032058B50B00A8
:104D90006CE3032008B500234377006803F042FF6B
:104DA000BDE8084002F00ABB2DE9F0438F188FB030
:104DB000B942CDE9051706468946904680F0C28083
:104DC00005A80D88FFF75AFF0368BB4280F0BA8040
:104DD00005980378412B49D1013004F098FB052850
:104DE00037DDFF2447F276239D4200F0D38041D87F
:104DF00047F261239D4200F0A88047F264239D4260
:104E00006BD046F670539D4241D1784D784EDFF815
:104E1000F4810598B84280F095800378412B4BD1FE
:104E2000013004F074FB052839DDFF2405A8FFF7E5
:104E300025FFDDF8149029464846FFF713FE01468A
:104E400000283DD1204604F047F905A8FFF716FFDA
:104E5000DFE70598013004F05AFB0028C1DB059814
:104E6000013004F054FB0E30C4B2BBE705A8FFF7D5
:104E7000FBFEF9E747F264739D424FD047F2767329
:104E80009D4200F0978047F261739D426FD00023EE
:104E9000CDE9013302220092728B19463AE005985F
:104EA000013004F034FB0028BFDB0598013004F02A
:104EB0002EFB0E30C4B2B9E705A8FFF7D5FEF9E71F
:104EC00031464846FFF7CEFD28B141464846FFF738
:104ED000C9FD0028B9D10121B4E70AAB45490793C0
:104EE00007A810230025CDE90853FFF7D6FE07A831
:104EF0002146FFF7EFFE204604F018F9014607A807
:104F0000FFF7FAFE089BCDE90155013B0093079B93
:104F10002A461421304600F0CDFA13E005A8FFF729
:104F2000ADFE03689F420DD9A4B20121204604F0D2
:104F3000D3F805A8FFF798FE011E18BF01212046EF
:104F400004F0DBF80FB0BDE8F0830AAB079307A8C5
:104F5000102329490025CDE90853FFF79EFE07A835
:104F60002146FFF7B7FE204604F0F3F8C6E705A890
:104F7000FFF784FE03689F42E4D9A4B201212046D2
:104F800004F0AAF805A8FFF76FFE0146204604F0DA
:104F9000F7F8D7E720468DF8284002F011FA0346CB
:104FA0000AA823B1154A934201D09847CAE702F0F4
:104FB00003FAC7E705A8FFF761FE059B8DF81C40C3
:104FC000A3EB0901A8EB01012046CDE90A310C91C0
:104FD00002F000FA03460AA907A823B1084A93423F
:104FE00001D09847AEE702F0E8F9ABE763B50B00F4
:104FF00066B50B006EB50B0071B50B00B9730B00F5
:10500000BB730B006AB50B002DE9F0418CB004AF07
:10501000044605220068391D03F0B5FAA8B3052837
:1050200004D000202037BD46BDE8F081B7F8050068
:1050300002F058FCA7F80500B7F8070002F052FC90
:10504000B7F80530A7F807008046002BE9D03B7978
:1050500023BB02F0AFF90246E060607FB7F807308B
:10506000C0B9B7F80510012914D1092B0FD0C82BEE
:1050700001D0042BD6D1012562612046657700F06E
:10508000C9FAFFF7A7FD02F099F90120CAE7032347
:105090006377C7E7581F18BF0120C3E7B0F5806FDB
:1050A00003D92046FFF776FEEFE700F1080323F06F
:1050B00007036E46ADEB030D04AD0246294620689A
:1050C00003F061FA80454FF000007FD1B7F8073058
:1050D000E85402F06FF93B79E060142B00F0A680F1
:1050E00048D80F2B00F0A28007D8022B48D0062BFF
:1050F00051D02046FFF74EFE58E0112BF9D1002386
:105100003B70B7F807302B449D42C7E903534DD29B
:1051100007F10C00D5F80080FFF7B0FDFB68B7F889
:1051200007105D1B4D1BC7E905357B68FD61C3F3A7
:105130000F236383644B984500F0BF8000F28C809E
:10514000A3F57F236FF400721344984500F09D800F
:1051500079D8A3F50033063B984500F09C8003F511
:105160000033033398456BD107F11401384602F040
:1051700024F965E0292B1BD0372B17D01D2BB8D174
:10518000637F43B901236377204600F043FAFFF7BA
:1051900021FD02F013F90023C821B7F80520009182
:1051A000CDE901331946204600F084F901200DE0D5
:1051B000A3681BB9402002F059FDA060B7F8078032
:1051C000A8444545C7E9055802D30020B54629E75C
:1051D00029464022A06804F0FBF9A368002583F863
:1051E0003F5007F11400FFF749FD036898451BD9AC
:1051F000786920B1BB69984214D204F08CF985B269
:10520000206803F00FFD2368A2685A631D870023FE
:10521000637702F0CFF8A0F59C500838C4E903008A
:105220006061C3E72846EAE75025E9E77B68B7F8FD
:105230000720C3F30F23638329462046FFF7B4FDFD
:1052400000236383B2E7214B9845F9D107F114019C
:10525000384602F0B2F8F3E71D4B984521D003F130
:105260009F6303F5003303F5807398451FD003F166
:105270006E4303F5302303F586739845E0D107F1BB
:105280001401384602F099F8DAE707F114013846BC
:1052900002F093F8D4E707F11401384602F08DF8D4
:1052A000CEE707F11401384602F087F8C8E707F1A6
:1052B0001401384602F081F8C2E707F114013846BC
:1052C00002F07BF8BCE700BF76667300646267009B
:1052D00061636F6E2DE9F04104468CB00D46FFF717
:1052E00079FC637F022B1ED0237F628B0133DBB2FC
:1052F0002377AAB9022B13D8206803F05BFBA8B16F
:1053000025B9206803F034FC00280FDD2046FFF7A4
:105310007BFE0028F5D1206803F084FC02F04EF8F3
:10532000237F013B23770CB0BDE8F08102F042F807
:105330000546206803F03EFB677F012F064624D117
:1053400020B965612046FFF725FDE9E7E3684FF2E4
:105350001862EB1A9342F5D84AF6C872934203D802
:105360002369EB1A9342DBD9636941F27072EB1A3D
:105370009342D5D90023CDE9013300931A46062183
:10538000204600F097F86561CAE7002FC8D163692D
:10539000EB1A40B141F270729342C1D9206803F018
:1053A00041FC6777BCE741F288329342B8D9206864
:1053B00003F038FCD4F800C0DCF834E0BCF83880E6
:1053C000BEF1000F1BD0334642467146604603F0E3
:1053D00073FA0128D7D16368059301251846258300
:1053E000FFF74AFB0022CDE90122059B00902A46E7
:1053F0001D21204600F05EF82369636190E7084BA9
:1054000006930CF120070FCF07AE0FC63B68337031
:105410004246734606A9604603F02EFBD9E700BF5B
:1054200050C60B001FB500211948FFF753FF19485C
:1054300002F053F8184802F014F9184801F096FCED
:1054400088B1174C154801F068FE237833B1154A2E
:105450001549124801F005FE0023237004B0BDE891
:105460001040FFF76DBC684602F090FB00990B48B6
:1054700001F06CFD684603F09BF80C49074801F009
:1054800094FF0B49054804B0BDE8104001F08DBF02
:1054900020E2032074E30320DCE203207CE203200B
:1054A00068E3032074B50B0077B50B008AB50B00D9
:1054B000A3B50B002DE9F04F83B000AF04460068A0
:1054C0003D6B884616469946EB4603F073FA002872
:1054D00000F08180B8F11D0F04D84D4B23FA08F37A
:1054E000DB0702D4637F012B75D146B9668B36B9D1
:1054F000238B01339BB2002B72D02383268BA8F120
:105500000C03082B16D8D4E90323934238BF134663
:1055100003F1420A01F04EFFAAEB0000002861DB14
:1055200000212046FFF7D6FE01F044FFAAEB000061
:105530000028F5DAB9F1000F5BD06B1D7A6B002AF9
:10554000BA6B08BF002203EB020A0AF1070323F03B
:105550000703ADEB030D30468DF80080C7F804D08B
:1055600002F0C8F9BB6BADF80100E81880B202F098
:10557000C1F9ADF80300B9F1000F3CD0002D3AD0CD
:105580002A4649460DF1050003F0C9FF681D7B6BF3
:105590003BB1BB6B2BB11A467B68796B184403F0A7
:1055A000BEFF002555452AD2AAEB05027B6820687C
:1055B000B2F5806F28BF4FF48062591903F0ADF83F
:1055C0000646002001F0F4FEBEB9206803F02AFB75
:1055D000667701F0F3FE0C37DD46BD46BDE8F08F7F
:1055E00001238AE7217F0029A4D12046FFF772FE1C
:1055F000A0E70523A2E70520C9E73544D2E703D099
:105600002046FFF7C7FBE6E701F0D4FE2061E2E7A2
:105610004500002030B599B008AB0446059300253D
:10562000402305A80B49CDE90653FFF736FB05A833
:105630000949FFF732FB069B0293059B0193652303
:1056400000932A46054B11212046FFF733FF19B07E
:1056500030BD00BFBBB50B00C0B50B0040B60B00A2
:105660002DE9F041ADF5846D08AB002405460E46EA
:10567000059305A84FF48063154910EE108ACDE913
:105680000643FFF70AFB05A83146FFF723FBDDE9D8
:105690000661059B40468F1B1E44FEF725FE0D4A02
:1056A000CDE900013946304602F0F8FA431C06986D
:1056B00003440693013B0093CDE90144059B224638
:1056C00014212846FFF7F6FE0DF5846DBDE8F08144
:1056D000CEB50B00D1B50B00B0B52DED028B02F1AC
:1056E000080388B023F0070300AFADEB030D1546A8
:1056F0000446684603F013FF0023694638460DF858
:10570000053002F0A0FF384602F0D6FF214607F12F
:105710001000B0EE408A02F096FF1A4907F110001F
:1057200002F0B7FF054607F1100002F041FF85B116
:10573000154BB0EE480A83ED008A02211348FFF7AB
:105740008FFF384602F034FF2037BD46BDEC028B98
:10575000B0BD214607F1100002F075FF0C4907F1BA
:10576000100002F096FF044607F1100002F020FF3F
:10577000002CE6D0074BB0EE480A83ED008A0721E3
:10578000DCE700BFA3B50B006CE3032020E203209D
:105790008AB50B0070E30320F7B52E482E4C01F0BC
:1057A00037FFFFF7BBFA2D492A4802F0CBFC294806
:1057B00001F0D0F840F6B83001F0FAFD284B6360F4
:1057C00001F0F8FDA0F59C502368264A5A6308387A
:1057D000C4E90300502260611A87002644F24F6733
:1057E000206803F01FFA667701F0E4FD0546637F49
:1057F000012B0CD001F0DEFD401BB84204D8002183
:105800002046FFF767FDF2E7637F012BE8D103F045
:1058100025FB4FF4165103F011FB03F01FFB03F0BF
:1058200011FB0028F9D0104CA06830B10023CDE95D
:1058300000331A46022101F055FFA06840B1002351
:105840006FF00042CDE9002319461A4601F04AFFE5
:1058500003B0F0BDDCE2032020E20320D7B50B004B
:10586000E5B50B0006B60B004CE3032070B52A4DDE
:1058700088B0284603F020FA05F11C0002F02CFB4A
:10588000264B0024C3E90054C3E90244C3E904449D
:105890006C632C879C619C832146012002F052F9A5
:1058A0001F4B2049009440F25B721F4801F082F9BF
:1058B00007211E4801F07EFE1D4B049304AD1D4BD5
:1058C0001D4A1A6095E8030003F10C0202AE86E857
:1058D000030092E8030085E8030096E8030082E8ED
:1058E0000300164A5A619A690792154A9A611C7117
:1058F0009C60144A069443F6982103F10800CDE910
:10590000004401F0D7FE2846FFF770F90E4808B0B2
:10591000BDE8704001F074BD40E2032020E20320A6
:10592000D9560B0012B60B007CE20320DCE2032008
:10593000694B0B004CE303202CB60B00BB4B0B0058
:10594000CF4B0B00814B0B0074E303202DE9F04F8C
:1059500085B01F46BDF93880BDF83C30A8EB020980
:10596000A7EB010AB9F1000FB8BFC9F10009BAF1FC
:10597000000FB8BFCAF1000AD14583460C46154650
:1059800004DD3A462C4647460D469046BC4205DDAE
:105990002A464546904622463C4617463E1BB2B232
:1059A0000092A8EB050282EAE271A1EBE271C6F374
:1059B000C03202FA86F64545B4BF01224FF0FF32ED
:1059C000019176100292BC421CDCDBF800200393AC
:1059D000D145D2F81880C7BF294622462A4621461B
:1059E0005846C047019A039BB61AB1B236B2002E90
:1059F00005DA029A1544009A56182DB236B20134CF
:105A000024B2E0E705B0BDE8F08F704710B4046839
:105A10002469A4465DF8044B604730B40468BDF8BF
:105A200008500295A46BA44630BC604730B40468AB
:105A3000BDF808500295E46BA44630BC604770B4D2
:105A4000BDF90C50BDF810600468CDE90356246C14
:105A5000A44670BC60472DE9F3411C460368BDF8BD
:105A600020805B6905461646013C34440F4624B24B
:105A700098472B68CDF8048000949C6A28463B46E2
:105A800032463946A0472B68DB6A284602B0BDE89B
:105A9000F04118472DE9F3411D460368BDF8208009
:105AA0005B69044617460E469847CDE900782268A0
:105AB0006B1E3344956A20461BB23A463146A847CE
:105AC0002368DB6A204602B0BDE8F04118472DE9A3
:105AD000F3471E460368BDF928905B69BDF82C802A
:105AE0000C460546174698472644B4422B680BDA05
:105AF000CDF80080D3F820A021464B463A462846F0
:105B00000134D04724B2F0E7DB6A284602B0BDE892
:105B1000F047184713B502680191B0F90E100091D3
:105B2000146CB0F90C3000221146A04702B010BD31
:105B30002DE9F74399421646BDF92870BDF82C901F
:105B4000026880460D461C4613D1BE42C8BF33468C
:105B5000CDF82890C4BF3E461F467B1C946B9B1B10
:105B60001BB2324629464046A44603B0BDE8F04386
:105B70006047BE420AD19942C2BF0B4625461C4629
:105B8000631CCDF82890D46B5B1BE9E753699847F9
:105B9000CDE90079D8F8003040469F6A3246234666
:105BA0002946B847D8F80030DB6A404603B0BDE864
:105BB000F04318472DE9F3471D460368BDF82C80D4
:105BC0005B69BDF9289004460F461646984723683E
:105BD000CDF80080D3F824A032462B463946204623
:105BE000D0472368CDF8008009F1FF323244D3F862
:105BF00024A039462B46204612B2D0472368CDF860
:105C00000080D3F820A032464B4639462046D04784
:105C10006B1ED9192368CDF800801D6A20464B46BB
:105C2000324609B2A8472368DB6A204602B0BDE8C5
:105C3000F0471847704701F00303B0F90A20837654
:105C4000C907B0F9083059BF8381C2818281C381FD
:105C50007047000030B54281C281074A074D01817B
:105C6000002481814FF0FF31C0E9051244600560D6
:105C700004610477046230BD01010001B0BB0B0078
:105C80002DE9F04F89B0CDE902120268BDF94880D4
:105C90000493BDF94C3052690593BDF850A00446F9
:105CA000904718F107024FF0000648BF08F10E02B6
:105CB0004FEAE20B01963546039B019ABDF90410A9
:105CC0009A18059B8B4212B227DD049B33444FF098
:105CD000000906930FFA89F080451FFA89F117DD54
:105CE0004F0705BF069BC0106D001D5C18BFEDB2CD
:105CF0002B060AD5029B206807921944836909B2D2
:105D00001F4620465346B847079A09F10109E1E7C3
:105D1000019B013301935E44CEE72368DB6A204692
:105D200009B0BDE8F04F18472DE9F04F2DED028B7B
:105D300091B01646026ABDF874809DF878509DF8BF
:105D40007C4003911F46BDF8703004938346002ABF
:105D500040F0C580B0F90C308B4240F34C81B0F973
:105D60000E30B34240F34781062313FB0513002B8B
:105D700040F3418106EBC403002B40F33C81037FD9
:105D80001BB9AF2F84BF0137FFB2DBF80030584694
:105D90005B6998470522099200220592984A07EB11
:105DA0008703D3180C93B3B20693059A0C9B9B5CA4
:105DB0000793ABB20B93BDF80C300893039B02FB27
:105DC00005F919FA83F90FFA89F308EE103A082356
:105DD0000A93039B02EB030A4FF000090FFA8AFAB9
:105DE000079ADBF80030D20752D5012D1FFA89F24D
:105DF0003ED1012C3CD19B6906991F46049B0A4465
:105E000012B251465846B84709F101034FFA83F9D7
:105E1000079B5B0807930A9B013B13F0FF030A9360
:105E2000DED1059F01377BB20593099B013B13F03F
:105E3000FF030993B9D1049B43450FD0012DDBF833
:105E400000303BD1012C39D10899CDF800800531C3
:105E50001C6A3246082309B25846A047DBF80030D6
:105E6000DB6A584611B0BDEC028BBDE8F04F184715
:105E7000069914FB02F20A44049901910094DB692B
:105E800018EE101A1F4612B22B465846B847BBE709
:105E9000049A4245B8D0012D1FFA89F207D1012C8E
:105EA00005D19B6906991F460A444346A8E706990F
:105EB000CDF8048014FB02F20A44DFE70B9ACDF818
:105EC000048002EB8201089AE4000A44114600941F
:105ED000DC6932462B4609B25846A047BEE7137A22
:105EE000516812680B92FF1AFFB201EBC70331F839
:105EF000372006929A780992DA780C92012D93F95C
:105F0000052093F906A00A9201D8012C57D9BDF9B2
:105F1000283008930FFA8AF30793DBF800305846CD
:105F20005B699847B3B24FF000080E931AFA86F3F4
:105F3000C14647460F930C9B9F428FD2079B0E9AF8
:105F40003B4403FB0423002205920F9A1BB202EB91
:105F5000070A08EE103A0FFA8AFA4346099A059999
:105F6000914241D25A1CD2B25B070D9207D1069BD7
:105F700006990B9A01339BB212F80190069319F01F
:105F8000800F12D0012DDBF80030BDF80C101AD1B3
:105F9000012C18D10A9A9B691144059A11441E4696
:105FA0005246049B09B25846B047059E0136F3B2EB
:105FB0004FEA490905935FFA89F90D9BCEE7002363
:105FC000CDE90733A9E70598089A024402FB0511B9
:105FD000049ACDE90042DB6918EE102A1E4609B288
:105FE0002B465846B047E0E7099B013798445FFAD3
:105FF00088F8FFB29FE711B0BDEC028BBDE8F08FCF
:10600000A7B60B00F0B5026A85B004460B46002A1D
:1060100034D10A2908D1438A0282427E03EBC203AB
:106020006382012005B0F0BD0D29FAD0E17E007E2B
:10603000657E71B1B4F91060062111FB0061B4F9FD
:106040000C60B142C1BFB4F91210228201EBC5024B
:106050006282E28A0192A28A0092CDE90205B4F935
:106060001220B4F910102046FFF75EFE237E228A2C
:1060700003EB430302EB43032382D2E70A2907D150
:1060800000230382417E927A438A01FB0233C7E7F1
:106090000D29C6D0157AA942C3D3517A9942C0D3EB
:1060A00051685D1BEDB201EBC505A87828B3E9780E
:1060B00019B3E17E267E677E91B195F905100844FB
:1060C000B4F9101006FB0011B4F90C00814207DD91
:1060D00000202082B4F91210927A02FB0712628229
:1060E000E28A0192A28A0092CDE90267B4F91220F5
:1060F000B4F910102046FFF717FE2979227E238A73
:1061000001FB0233B8E7012938BF0121017641764E
:106110007047704710B510210446FEF70EFD20466B
:1061200010BD0EB403B503AB002153F8042B01934B
:1061300002F02BF902B05DF804EB03B070470000E9
:1061400073B5044608462279A36832B1A3B90B4956
:1061500002B0BDE8704001F0F5BF094A267B094D49
:106160000949647B012E18BF2946CDE9001407496F
:10617000FFF7D7FF02B070BD054AEFE711BC0B0077
:1061800057B50B000DBC0B0009BC0B0027BC0B0066
:1061900000BC0B0010B5044B03600446C06A08B194
:1061A00001F06CFD204610BD00C10B0010B5044687
:1061B000FFF7F0FF20465021FEF7BFFC204610BD40
:1061C000002910B54BDBB0F90C408C4247DD002AAA
:1061D00045DBB0F90E40944241DD847E022C1FD095
:1061E000032C26D0012C04D10489D24314440A463E
:1061F00021B2012B23D0022B32D083BB002A1346BD
:106200000489C06AB8BFD31DDB1013FB041102F070
:10621000070201239340425C22EA030242541EE03B
:106220000489013C611A4489D243224409B212B262
:10623000DFE74489013C641A114622B2D9E7002AFB
:1062400004891346B8BFD31DDB1013FB0411C36AC6
:1062500002F0070001228240585C02435A5410BDEC
:10626000002A13460489C06AB8BFD31DDB1013FB94
:10627000041102F00702012303FA02F2435C5A40C0
:10628000CCE7000070B504461D460026FFF7E2FC8F
:10629000114B2360666215B902F0B4FF0546FF2377
:1062A00084F8333084F836309DF9103084F8373074
:1062B0000A4BA363012384F83C30059BA3644FF68B
:1062C000FF72069BA286C4E90A562664A4F84460BD
:1062D000E364204670BD00BF00C10B004CBC0B0046
:1062E000F8B50446806A0D4690B194F9301001F07B
:1062F000AFFDA06A036800219B689847A06A036805
:1063000029469B689847A06ABDE8F84001F0A7BD00
:1063100094F93530014698B202F0EFFE606A20B180
:106320002946BDE8F84002F013B90826802794F901
:10633000330005EA070180B202F0DFFE94F9340071
:10634000012180B202F0D9FE94F93400002180B21C
:1063500002F0D3FE013E4FEA5707E8D1F8BD38B549
:106360000446806A0D4680B1A16C01F063FD002DEA
:10637000204614BFA721A621FFF7B2FFA06A88B16B
:10638000E16CBDE8384001F055BD606A18B104F118
:10639000380102F06FF894F93600002180B202F063
:1063A000ACFEE4E794F93600012180B202F0A5FECC
:1063B000606A18B1BDE8384002F042B838BD2DE936
:1063C000F8430446806A0D468F1840B394F93010A4
:1063D00001F03EFDA06A036800219B6898470126F2
:1063E000AF42A06A17D01F2E0CD901F038FD94F9E6
:1063F0003010A06A01F02CFDA06A036800219B68A0
:1064000098470126A06A15F8011B036801369B68AE
:106410009847F6B2E4E7BDE8F84301F020BD94F9EF
:106420003530014698B202F068FEBD4222D0606A63
:1064300015F8019B18B1494602F08AF8F5E70826DD
:106440004FF0800894F9330009EA080180B202F0A5
:1064500054FE94F93400012180B202F04EFE94F90A
:106460003400002180B202F048FE013E4FEA580895
:10647000E8D1DAE7BDE8F883B0F90A30DA1D48BFA1
:1064800003F10E02B0F90830C06AD2105A4300215D
:1064900003F053B82DE9FF411E46C36A9DF82880DA
:1064A00004460F461546C3B12046FFF7E5FFB4F991
:1064B0000A00B4F90810202821DC2023012220380A
:1064C000CDE9013200EBD07073237339009301EBF7
:1064D000D171894B40F34F0221E0B0F90A30D81D49
:1064E00048BF03F10E00B4F90830C010584301F062
:1064F000BDFBE0620028D7D104B0BDE8F081403890
:10650000C0F3C03202FA80F240230120CDE901300D
:10651000522352390093794B01EBD171521020462E
:1065200041F34F01FFF7ACFBA06A84F831700028FB
:1065300078D0002D74D1B4F90A30202B0CBF3C2543
:106540003D2584F83050B8F1000F01D001F076FC01
:10655000FEB194F9370000281BDB012180B202F064
:10656000BBFD94F93700012180B202F0C6FD012085
:1065700001F0CCFB94F93700002180B202F0BDFDA0
:106580000A2001F0C3FB94F93700012180B202F028
:10659000B4FDA06A002874D0A16C01F04BFC042269
:1065A00057492046FFF70BFF61890139C9B22046E0
:1065B000FFF796FE534904222046FFF700FF94F9A7
:1065C0003130012B0CBF102114212046FFF788FE2B
:1065D00004224D492046FFF7F2FEA3684B4A93423E
:1065E0005CD14B4904222046FFF7E9FED921204621
:1065F000FFF776FE94F93130012B0CBF2221F121F7
:106600002046FFF76DFE204642490622FFF7D7FEDF
:10661000A06A002863D0E16C01F00CFC01206BE75C
:106620006DB28EE794F93500012180B202F054FD7D
:1066300094F93600012180B202F04EFD94F9360043
:10664000012180B202F059FD656A3DB1B8F1000F39
:106650003FF47EAF284601F0DFFE79E794F933007E
:10666000012180B202F038FD94F93400012180B29A
:1066700002F032FD94F93400294680B202F03DFD6B
:1066800066E7606A18B104F1380101F0F3FE94F98D
:106690003600002180B202F030FD80E71E4A9342AE
:1066A0000ED11E4903222046FFF789FE94F93130AE
:1066B000012B0CBF9F21CF212046FFF711FE95E74C
:1066C000174A934292D1174903222046FFF777FEDB
:1066D00094F93130012B0CBF1021AF21ECE794F974
:1066E0003600012180B202F008FD606A002895D0D2
:1066F00001F0A6FE92E700BF18BF0B0058BC0B00CC
:1067000060C10B0064C10B0068C10B008000200059
:1067100072C10B006CC10B008000400076C10B0001
:106720006000100079C10B0070B5002ABDF8105050
:106730003DDBB0F90A40944239DD0029BEBF5B1849
:106740001BB20021B0F90840CE18A642C4BF631A9C
:106750001BB2002B2BDDC06AD61014FB06110144BE
:1067600002F0070001228240012DD2B216D0022D84
:106770000BD0E5B9D243D2B20B44994217D011F8ED
:10678000010B104001F8010CF7E70B4499420ED0C1
:1067900011F8010B504001F8010CF7E70B44994246
:1067A00005D011F8010B104301F8010CF7E770BD9B
:1067B000F0B50029BDF8145076DBB0F90860B1429D
:1067C00072DA002ABEBF9B181BB20022B0F90A4041
:1067D000D718A742C4BFA31A1BB2002B64DDC2F3B3
:1067E000C404C76A16FB041612F00702DBB207EBFB
:1067F000060423D0C2F10802D2B22D4993423CBF15
:106800004FF0FF0CA2EB030E895C3CBF4CFA0EFC70
:106810000CEA0101012D07D0022D2ED04DB917F839
:1068200006C02CEA010103E017F806C041EA0C019A
:10683000B955934238D3B0F908100C449A1AD2B221
:10684000072A0ED9022D1DD113462178C943217084
:10685000083BB0F90810DBB2072B0C44F5D802F066
:1068600007020AB3134B012D9B5C1AD0022D1CD0DA
:10687000D5B9227822EA030315E017F806C081EAA9
:106880000C01D5E7291E18BF01214942C9B21346A0
:106890002170083BB0F90860DBB2072B3444F7D80D
:1068A000DDE7227813432370F0BD22785340FAE7E6
:1068B00050C10B0058C10B0070B41446827EBDF865
:1068C0000C60022A0DD0032A18D0012A11D10289A6
:1068D000E443144424B203960A46214670BCFFF7F1
:1068E00067BF42890589E44319441444691A24B2F4
:1068F00009B20396224670BCFFF716BF45891944BA
:10690000691A09B2E7E730B41446827EBDF8085030
:10691000022A0DD0032A18D0012A11D1E2180489C5
:10692000A41A24B202950A46214630BCFFF7FCBEE9
:106930000289C9431144E2184489A41A09B224B255
:106940000295224630BCFFF733BF4289C943114448
:1069500009B2E7E72DE9F8430446806A002842D0EF
:10696000A16C01F067FA474905222046FFF727FD91
:10697000218901392046C9B2FFF7B2FCB4F90A30C7
:10698000DE1D48BF03F10E06D4E90A052389F6107F
:1069900013FB06F615FA86F600283AD094F9301063
:1069A00001F056FAA06A036840219B6898470127C6
:1069B000B542A06A24D01F2F0CD901F050FA94F9E7
:1069C0003010A06A01F044FAA06A036840219B6875
:1069D00098470127A06A15F8011B036801379B68D7
:1069E0009847FFB2E4E7606A18B104F1380101F09A
:1069F00041FD94F93600002180B202F07EFBB2E73F
:106A000001F02DFAA06A78B3E16CBDE8F84301F01B
:106A100011BA94F93500012180B202F06EFBAE424A
:106A2000F0D0606A15F8019B18B1494601F090FD5D
:106A3000F5E708274FF0800894F9330009EA0801C8
:106A400080B202F05AFB94F93400012180B202F0C6
:106A500054FB94F93400002180B202F04EFB013F58
:106A60004FEA5808E8D1DAE794F93600012180B2FC
:106A700002F043FB606A18B1BDE8F84301F0E0BCE6
:106A8000BDE8F8837CC10B0000210A22C0E9001296
:106A90007047002310B50446C171837188B202F0BB
:106AA00045FB08B10323A37100F064FE206010BD14
:106AB00038B50C4605461146A0B202F00DFB214642
:106AC0002846BDE83840FFF7E4BF38B50446C07932
:106AD00002F02CFBA579003825F0080318BF01202F
:106AE000C5F340058542A3710AD000F043FEA379A7
:106AF000206083F00203A371A079C0F3C00038BD09
:106B000000F038FE2368C01AA3889842F4D3A37912
:106B100003F00103AB42EFD000F02CFEA37920601C
:106B200083F0010343F00803E5E791F85C3010B50A
:106B30000446016013B1886D00F0ECFD204610BDE5
:106B400010B5036893F85C20044612B1986D00F00C
:106B5000E9FD204610BDF8B51F469DF824300446D7
:106B60000D4616462BB1012380F85C30583000F0FA
:106B7000C1FD089B23630023636306B1A66425B1AE
:106B8000294604F1380001F072FD069B2365079B3E
:106B9000E069A4F84C70FF2BB8BFFF23A4F8543071
:106BA00008B1FDF7C8FFB4F85400FDF7C2FFE0617B
:106BB000F8BD00002DE9FF41044600251746984620
:106BC0000E4602F079F80D49E56104F1380001F054
:106BD0003AFD9DF82830A564CDE90283FF220F23FA
:106BE000CDE90032204684F85C503B462A463146C7
:106BF000FFF7B1FF204604B0BDE8F08157B50B00A8
:106C000010B50446204601F0B3FF0028FAD0204614
:106C100001F098FDC0B210BD2DE9F0470546884649
:106C2000FFF7EEFFEB691870EB6993F800A04FF0E7
:106C300001090AF0F00A00274C462846FFF7E0FF5A
:106C40002646EB69985500F07F0313FB09F31F44B8
:106C500001340306A4B2BFB24FEAC919EDD4631ED2
:106C6000BAF1300F88F800301ED12846FFF7C8FF70
:106C7000EB6918552846FFF7C3FFF41C0236B6B27D
:106C8000EB69A4B298550226B6B2BE420ED228468F
:106C9000FFF7B6FFB5F85430A34284BFEB6918552F
:106CA0000134A4B20136EFE70026EDE7B5F8543021
:106CB000A3422CBF20460020BDE8F0872DE9F34118
:106CC00015461E461A4607460023964602A802F0BD
:106CD0007F0CBEF17F0F03F10104034488BF4CF029
:106CE000800CBEF17F0F4FEAD212E4B203F804CC5D
:106CF0001ED8C4F10403C4F10500E954224601A9D9
:106D0000284405EB030802F00AFC721C22444146A9
:106D1000384601F002FD054600F02CFD621C786249
:106D20003244A8B2131A5842584102B0BDE8F0816B
:106D30002346CAE70233F0B5054698B20023CE5C7D
:106D40009CB256B1B5F854C0844503F1010704D98B
:106D5000441C16543B46A0B2F1E799B2411A0A44CA
:106D6000210A02F8021C02F8013CF0BD38B50446C5
:106D700001F020FE002814BF0125002502D1204685
:106D800001F050FF284638BD2DE9F04788B0044691
:106D9000DDF840809DF850A0894617461E46FFF753
:106DA000E5FF0546002840F0CD80214601A8FFF709
:106DB000BCFEA16C002940F08880B4F84C20A16B87
:106DC0002B46204601F078FD00287AD00123238449
:106DD0009DF85430E269042B5B4B40F081801868C9
:106DE00099889B79ADF80C108DF80E300290C2F89E
:106DF00005009DF80E30BDF80C10A2F80910D372F2
:106E00000C23B8F1000F00F081809DF848009DF838
:106E10004420400140EAC20040F00600C0B2BAF18E
:106E2000000F01D100F0FD001FB1002E70D140F025
:106E30008000E269D054226DE169581C12120A5494
:106E40009A1CE169206D88540333E2694946204663
:106E5000FFF770FF0346B8F1000F0BD0E26941461F
:106E60002046FFF767FFE269139903462046FFF7C4
:106E700061FF034667B1E26939462046FFF75AFFD2
:106E800003462EB1E26931462046FFF753FF034621
:106E9000053BE2699BB210212046FFF70FFF00F08F
:106EA00069FCC4E909004FF47A76204601F060FEDF
:106EB00088BB00F05FFCA36AC01A236D734398423D
:106EC000F3D9204601F0AEFE35E002A801F048F803
:106ED000B4F84C202B4602A9204601F0CDFD73E703
:106EE000D3F80700D3F80B10DB7B0DF1080CACE8EE
:106EF00003008CF8003002AB03CBC2F80500C2F8E7
:106F000009109CF8003053730E237AE7022086E7BD
:106F100040F0C0008DE702A92046FFF77DFE04285F
:106F2000CFD1E369DE78002ECBD100F023FC012520
:106F3000A06284F82C6001A8FFF702FE284608B082
:106F4000BDE8F0870025F9E70CB50B007FB50123FC
:106F50000422CDE904320023CDE90233CDE9003328
:106F60001A46FFF711FF07B05DF804FB2DE9F74F54
:106F7000DDF83C809DF834509DF8389004468B46EF
:106F800016461F46FFF7F2FE8246002851D02146E2
:106F900001A8FFF7CAFDB4F85420E069002102F00F
:106FA000CCFA0523E26959462046FFF7C3FE6B1E63
:106FB000012B15D8218CE369013189B22184090A9A
:106FC0001954421CE369218C92B20230995480B268
:106FD000B8F1000F04D0238C5A1C2284A8F800308A
:106FE00000210B188F42E2699BB20AD9B4F854C051
:106FF0009C4506D916F801C002F803C0013189B2D8
:10700000EFE79DF8301000290CBF30213121B9F194
:10701000000F01D041F00801022D0ED141F0040112
:10702000053B9BB22046FFF749FE824601A8FFF7C9
:1070300087FD504603B0BDE8F08F012D08BF41F039
:107040000201EDE71FB5089C0394002402949DF80B
:107050001C4001949DF818400094FFF787FF04B08E
:1070600010BD30B587B00446104605910492FDF777
:1070700003FD00250346CDE90155DDE90421009516
:107080002046FFF7DFFF07B030BD73B504460E465C
:10709000FFF76CFE0546C8B1214601A8FFF745FD84
:1070A000E36962221A70E36902225A70E369320AC4
:1070B0009A70E369DE70E1690422204601F02DFB3D
:1070C000051E01A818BF0125FFF73AFD284602B0AA
:1070D00070BD73B504460E46FFF748FE0546C8B1BD
:1070E000214601A8FFF721FDE36972221A70E369C6
:1070F00002225A70E369320A9A70E369DE70E1692C
:107100000422204601F009FB051E01A818BF012535
:10711000FFF716FD284602B070BD2DE9F04F2DEDAA
:10712000028B87B000AF0446FFF720FE8146F8B11E
:10713000214607F11400FFF7F8FC00F01BFB236D5C
:107140004FF47A725343A26A821A9A42064603D8CF
:10715000626A821A934221D294F82C307BB1204685
:1071600001F060FD4FF0000907F11400FFF7E8FCA3
:1071700048461C37BD46BDEC028BBDE8F08FE26986
:10718000C0211170E2695370E1690222204601F0CA
:10719000C4FAC4E90966012384F82C30204601F0C2
:1071A000E7FC0028E0D007F113012046FFF734FD8B
:1071B00083460028D8D0E369A662197801F0F0026E
:1071C000302A7FD1D4F830A0BAF1000FCCD097F894
:1071D00013C06A4608EE102A03EB0C02517895782A
:1071E00005EB0125ADB205F108026946D208A1EB15
:1071F000C20295460CF10302FA6003EB020E0DEB9E
:1072000005026846C7F808D07A60D7E901218A42AA
:1072100006D00A461EF8018B02F8018BBA60F4E72B
:107220000022425593F80080F96808F00608ABEB9D
:107230000C02033AB8F1020FA2EB0502294425D152
:1072400013F801E01944023A91F801B00CF105017C
:10725000294419440BEB0E2BD047E36940221A70E6
:10726000E3691FFA8BFB83F80180E3694FEA1B2275
:107270009A70E36983F803B0E1690422204601F0C3
:107280004CFA666218EE103A9D466DE7B8F1040FAD
:1072900015D113F801E01944023A91F801B00CF14C
:1072A0000501294419440BEB0E2BD047E36950220A
:1072B0001A70E36902221FFA8BFB5A70D5E7194452
:1072C000D047DFE7502A08D19A78D97801EB02211C
:1072D00089B22046FFF7D9FE46E7402A12D1626BF9
:1072E000002A3FF441AFBBF1040F7FF43DAF11F032
:1072F000060F7FF439AF9978D87800EB012080B27F
:10730000904731E7602A08D19A78D97801EB0221B9
:1073100089B22046FFF7DDFE26E7702ADFD0902AEB
:107320003FF422AFC02A0AD1D0221A70E3690022AA
:107330005A70E1690222204601F0EFF914E7D02AE1
:1073400004BF002384F82C300EE7F7B504460F463F
:107350001646FFF70BFD054610B3214601A8FFF7BF
:10736000E4FB238C01339BB2EBB12384238CE269D1
:107370001B0A5371E369228C9A71E269072339462B
:107380002046FFF7D7FCE3691E54043883B2E26954
:1073900082212046FFF792FC054601A8FFF7D0FBAB
:1073A000284603B0F0BD0123DFE70022FFF7CDBF81
:1073B00000F0ACBC00F0DEB97047704770470000C9
:1073C00003065ABF024B53F820000020704700BF4D
:1073D00084C10B0003065ABF024B53F82000002063
:1073E000704700BF84C30B00342303FB0101CB684B
:1073F00023B94869003818BF012070470120704741
:10740000034600F550720021D96034339A42FBD113
:107410004FF0FF33C0F84033704713B50B460246B8
:10742000D0E900016C4684E8030093E8030082E899
:10743000030094E8030083E8030098689168906073
:107440009960D168D868D060D96002B010BDF0B53D
:107450000F2993B004460D463DD8D0F84033002B99
:1074600039D0FFF7C1FF002835D0342632467543A6
:10747000002105A802F061F82F1D0023635101A926
:1074800006A827440393FFF7C8FF394601A86619E9
:10749000FFF7C3FF01A8FDF7A9FB0A9B73610B9BD4
:1074A000B3619DF8303033770D9B33620E9B73626E
:1074B0000F9BB3629DF8403086F82C30119B3363EC
:1074C00006A8FDF793FBFFF775FF6051D4F8403332
:1074D000013BC4F8403313B0F0BD2DE9F047054639
:1074E000FFF768FF002607462C46B1464FF001081B
:1074F0004FF0020AC4F8309031462846FFF774FF77
:1075000080B12368216AFA1A8A420BD3B2FBF1F2E6
:1075100001FB0233236094F82C301BB1626AEAB994
:10752000C4F830800136102E04F13404E2D12C1D51
:107530000026E36A5BB1237EDBB1D4E904309847CF
:10754000E36A022B03D131462846FFF780FF01365C
:10755000102E04F13404ECD1BDE8F087A36A9A42FE
:10756000E0D901339A42A3628CBF4346534623635A
:10757000D8E7A3680BB901F0ABFEE3682046DEE76D
:1075800010B5064B03600446006D08B100F0BAF870
:107590002046FEF7FFFD204610BD00BF8CC50B0046
:1075A00010B50446FFF7ECFF20467021FDF7C5FA41
:1075B000204610BD30B585B004460D4601F022FED0
:1075C000104A1149CDE901214FF0FF3280210346D5
:1075D000009220462022FEF755FE0C4B236000232C
:1075E000C4E9143504F15800FFF74EFA04F16000C5
:1075F000FFF74AFA04F16800FFF746FA204605B0A3
:1076000030BD00BF801A0600A08601008CC50B00AB
:1076100013B50446503000F06DF8636DD90705D5F9
:107620000222042104F15800FFF742FA636D9A0721
:1076300005D50022032104F16000FFF739FA636DDC
:107640005B0705D50222114604F16800FFF730FA06
:10765000012300933C2202212046FEF71BFF02B0CB
:1076600010BD10B5436DD907044602D55830FFF759
:107670002CFA636D9A0703D504F16000FFF725FA31
:10768000636D5B0705D504F16800BDE81040FFF7A6
:107690001CBA10BD08B5024B1B68DB68019308BD1E
:1076A0004802030008B5024B1B68DB69019308BD63
:1076B0004802030008B5024B1B681B6A019308BD12
:1076C0004802030008B5024B1B685B6A019308BDC2
:1076D0004802030008B5024B1B689B6A019308BD72
:1076E0004802030008B5024B1B68DB6A019308BD22
:1076F0004802030008B5024B1B681B6B019308BDD1
:107700004802030008B5024B1B685B6B019308BD80
:107710004802030008B5024B1B689B6B019308BD30
:107720004802030008B5024B1B681B6C019308BD9F
:107730004802030008B5024B1B685B6C019308BD4F
:107740004802030008B5024B1B681B6F019308BD7C
:107750004802030008B5024B1B685B68019308BD33
:107760001802030008B5024B1B68DB68019308BDD3
:107770001802030008B5024B1B685B69019308BD42
:107780001802030008B5024B1B685B68019308BD33
:107790002C02030008B5024B1B689B68019308BDCF
:1077A0002C02030008B5024B1B68DB68019308BD7F
:1077B0002C02030008B5024B1B681B69019308BD2E
:1077C0002C02030008B5024B1B685B69019308BDDE
:1077D0002C02030008B5024B1B689B6A019308BD8D
:1077E0002C02030008B5024B1B681B6B019308BDFC
:1077F0002C02030008B5024B1B689B6F019308BD68
:107800002C02030008B5024B1B681B68019308BDDE
:107810002802030008B5024B1B68DB68019308BD12
:107820002802030008B5024B1B689B69019308BD41
:107830002802030008B5024B1B68DB69019308BDF1
:107840002802030008B5024B1B681B6A019308BDA0
:107850002802030008B5024B1B685B6A019308BD50
:107860002802030008B5024B1B689B6A019308BD00
:107870002802030008B5024B1B68DB6A019308BDB0
:107880002802030008B5024B1B681B6B019308BD5F
:107890002802030008B5024B1B685B6B019308BD0F
:1078A0002802030008B5024B1B681B6C019308BD3E
:1078B0002802030008B5024B1B685B69019308BDF1
:1078C0006C02030008B5024B1B685B69019308BD9D
:1078D0006402030008B5024B1B681B6A019308BDD4
:1078E0006402030008B5024B1B685B6A019308BD84
:1078F0006402030008B5024B1B689B6A019308BD34
:107900006402030008B5024B1B689B68019308BD25
:107910006802030008B5024B1B68DB68019308BDD1
:107920006802030008B5024B1B689B69019308BD00
:107930003802030008B5024B1B68DB69019308BDE0
:107940003802030008B5024B1B681B6A019308BD8F
:107950003802030008B5024B1B689B6A019308BDFF
:107960003802030008B5024B1B681B6B019308BD6E
:107970003802030008B5024B1B689B6B019308BDDE
:107980003802030008B5024B1B681B68019308BD51
:107990003002030008B5024B1B685B69019308BD08
:1079A0003002030008B5024B1B68DB69019308BD78
:1079B0003002030008B5024B1B681B6A019308BD27
:1079C0003002030008B5024B1B685B6A019308BDD7
:1079D0003002030008B5024B1B68DB6B019308BD46
:1079E0003002030008B5024B1B681B6C019308BDF5
:1079F0003002030008B5024B1B685B6C019308BDA5
:107A00003002030008B5024B1B68DB68019308BD18
:107A10003C02030008B5024B1B681B69019308BDBB
:107A20003C02030008B5024B1B685B69019308BD6B
:107A30003C02030008B5024B1B689B69019308BD1B
:107A40003C02030008B5024B1B68DB69019308BDCB
:107A50003C02030008B5024B1B681B6A019308BD7A
:107A60003C02030008B5024B1B689B6A019308BDEA
:107A70003C02030008B5024B1B681B6C019308BD58
:107A80003C02030008B5024B1B681B68019308BD4C
:107A90004C02030008B5024B1B685B68019308BDEC
:107AA0004C02030008B5024B1B681B69019308BD1B
:107AB0004C02030008B5024B1B685B69019308BDCB
:107AC0004C02030008B5024B1B689B69019308BD7B
:107AD0004C02030008B5024B1B68DB69019308BD2B
:107AE0004C02030008B5024B1B681B6A019308BDDA
:107AF0004C02030008B5024B1B689B6A019308BD4A
:107B00004C02030008B5024B1B685B6B019308BD78
:107B10006002030008B5024B1B681B6D019308BD92
:107B20006002030008B5024B1B685B68019308BD47
:107B30002002030008B5024B1B685B69019308BD76
:107B40002002030008B5024B1B68DB6A019308BDE5
:107B50002002030008B5034B1B68D3F8883001935B
:107B600008BD00002002030008B5034B1B68D3F8D2
:107B70009430019308BD00002002030008B5024BB9
:107B80001B689B68019308BD4402030008B5024BC3
:107B90001B68DB69019308BD4402030008B5024B72
:107BA0001B68DB6B019308BD4402030008B5024B60
:107BB0001B685B68019308BD4002030008B5024BD7
:107BC0001B689B68019308BD4002030008B5024B87
:107BD0001B68DB68019308BD4002030008B5024B37
:107BE0001B681B69019308BD4002030008B5024BE6
:107BF0001B685B69019308BD4002030008B5024B96
:107C00001B689B69019308BD4002030008B5024B45
:107C10001B68DB69019308BD4002030008B5024BF5
:107C20001B681B6A019308BD4002030008B5024BA4
:107C30001B681B6B019308BD4002030008B5024B93
:107C40001B685B6B019308BD4002030008B5024B43
:107C50001B681B6C019308BD4002030008B5024B72
:107C60001B685B6C019308BD4002030008B5024B22
:107C70001B681B68019308BD1C02030008B5024B7A
:107C80001B685B68019308BD1C02030008B5024B2A
:107C90001B689B68019308BD1C02030008B5024BDA
:107CA0001B68DB69019308BD1C02030008B5024B89
:107CB0001B685B6A019308BD1C02030008B5024BF8
:107CC0001B68DB6A019308BD1C02030008B5024B68
:107CD0001B681B6B019308BD1C02030008B5024B17
:107CE0001B68DB6B019308BD1C02030008B5024B47
:107CF0001B681B6C019308BD1C02030008B5024BF6
:107D00001B685B6C019308BD1C0203000021FFF798
:107D100011BF0000024800230360FFF70BBD00BF46
:107D2000C4E60320002240681146FFF777BF002217
:107D300040681146FFF782BF40680022FFF776BF18
:107D40004068002281F00101FFF760BF0023406816
:107D50001A461946FFF752BF002340681A461946D3
:107D6000FFF744BF002240681146FFF737BF0022EB
:107D700040681146FFF722BF406800220221FFF74A
:107D800025BF002340681A46FFF710BF024B0322AD
:107D90005A60024A1A607047C8E60320ECC50B001F
:107DA0007047F8B5064615460C468F18BC4206D0FB
:107DB000336814F8011B9B6830469847F6E728465D
:107DC000F8BD007C0022FFF73DBD007C0021FFF7DD
:107DD00041BD007C0021FFF745BD007C0021FFF77D
:107DE00049BD007C0021FFF74DBD10B514210446AC
:107DF000FCF7A3FE204610BD38B5044615464FF4E7
:107E00007A730022C4E90123094B217408462360D8
:107E10002946FFF747FDBF3008D16B69DB0705D561
:107E20006868FFF72BFFE868FFF728FF204638BD9A
:107E300028C60B00007C0022FFF7E4BC0023007C76
:107E40001A461946FFF7E6BC007C0022FFF7EABCA1
:107E5000C9B2FFF7F9BF007C0022FFF7EBBC01219C
:107E6000FFF7F9BF704710B518210446FCF765FE0F
:107E7000204610BDF0B5037D062B8DB00E4600F1F7
:107E800004074FF0000412D000F1080515F8011D99
:107E90000A22304600F069F9AF42044419D0002CA0
:107EA000F4D02E21304600F051F90444EEE72F23A0
:107EB0006A4639460A208DF80040FFF703FD684600
:107EC000FCF7DAFD33680246DB68694630469847BE
:107ED000044620460DB0F0BD10B5054B04461122F6
:107EE00040F8043B002101F028FB204610BD00BFF4
:107EF00050C60B000346074A10B543F8042B01F1A6
:107F0000100251F8044B43F8044B9142F9D10A781E
:107F10001A7010BD50C60B00037D042B04D14068BD
:107F2000003818BF01207047062B07D143683BB9C2
:107F300083682BB9C3681BB90069F1E7002070475B
:107F40000120704710B59DF8084044EA032343EA36
:107F5000024242EA016104234160037510BD000042
:107F600007B5064B0360CB7800938B784A78097885
:107F7000FFF7E8FF03B05DF804FB00BF50C60B003D
:107F8000014B024A1A607047D0E603205CC60B0022
:107F9000002340681A46FFF709BE4068002202210C
:107FA000FFF714BE002240681146FFF707BE00220B
:107FB00040681146FFF712BE002340681A46194672
:107FC000FFF714BE002340681A461946FFF716BE95
:107FD00040680021FFF73ABE40680021FFF73EBE2F
:107FE0004068002281F00101FFF710BE40680022C6
:107FF000FFF71CBE002240681146FFF71FBE00229B
:1080000040681146FFF70ABE2DE9F04395B01446CB
:108010000D460746FFF760FF00211C220DA80091C6
:1080200001F08BFA40230C9320466B460CAA0021EA
:10803000FFF770FC044600284BD102460121686816
:10804000FFF7CCFD0221804622466868FFF7C6FD97
:10805000009E81462146002E3BD0002939D173680D
:10806000022B03D00A2B11D0F669F4E7B8F1000F08
:10807000FAD0716906A8043107ADFFF771FF0FCD83
:108080003C1D0FC42B6823704146EDE7B9F1000F8A
:10809000EAD07469102201A801F04FFA06238DF886
:1080A000143001AD04F108031834186859682A46E1
:1080B00003C20833A3421546F7D101A906A807ADAC
:1080C000FFF718FF0FCD3C1D0FC42B6823704946E6
:1080D000CAE70098FFF716FC384615B0BDE8F083F4
:1080E000024B034A1A6000225A607047D4E603200C
:1080F00068C60B00F8B506460D468F180024BD4231
:108100000CD0336815F8011B9B6830469847031E56
:1081100001DB1C44F3E7002C08BF1C462046F8BDD9
:1081200013B50446084659B10191FCF7A5FC236834
:108130000199DB680246204602B0BDE810401847AE
:1081400002B010BD08B5FFF7EBFF08BD03689B68E0
:10815000184738B50D210546FFF7F8FF0A210446F8
:108160002846FFF7F3FF204438BD30B58BB000231D
:10817000012A8DF8243098BF0A2209AC0D46B1FBC4
:10818000F2F101FB125303F0FF03092B94BF3033CC
:108190003733DBB2AA4204F8013DEFD92146FFF79D
:1081A000BFFF0BB030BD00002DE9F74F55EC104B71
:1081B00006460F4610EE102A10EE100A2B462946EE
:1081C000FCF784FB40B153493046FFF7A9FF8246D4
:1081D000504603B0BDE8F08F25F000494E4B4FF0FC
:1081E000FF3220464946FCF771FB48B94A4B4FF035
:1081F000FF3220464946FCF74BFB08B94749E3E705
:10820000474B4FF0604220462946FCF755FB08B12A
:108210004449D9E7444B4FF0604220462946FCF7D9
:108220002DFB0028F4D10022002320462946FCF72C
:1082300025FBD0B12D213046FFF788FF05F1004323
:1082400082461D463949DFF8EC904FF0000B0020C4
:108250004FF000085FFA8BF39F4208D942464B4625
:10826000FCF7C4F90BF1010BF4E78246EAE722467A
:108270002B46FBF7DBFE0D460446FCF765FB80460C
:10828000FCF710F802460B4620462946FBF7CCFEC9
:108290000A2204460D4630464146FFF766FF8244F7
:1082A000002F95D02249DFF88C903046FFF738FF39
:1082B0004FF000088244002F8AD042464B462046A9
:1082C0002946FCF769F804460D46FCF715FBB0F1AA
:1082D000000B1CDA2D213046FFF738FFCBF10001EF
:1082E00003460A2230460193FFF73FFF019B1844E3
:1082F00082445846FBF7E6FF02460B4620462946D5
:10830000FBF792FE013F04460D46FFB2D3E7594604
:108310000023E6E79CC60B00FFFFEF7FA0C60B0023
:10832000FFFFEF41A4C60B00FFFFEFC10000E03FDD
:10833000E3B50B000000244038B5044610EE100AE7
:10834000CDB2FBF7D1FF41EC100B29462046BDE82A
:108350003840FFF729BF38B5C9B20546FFF724FFFB
:1083600004462846FFF7F5FE204438BD38B50446DC
:1083700010EE100A0D46FBF7B7FF41EC100B294633
:108380002046BDE83840FFF7E6BF2DE9F04186B052
:1083900000AF05460E46381D142114463B60FFF71A
:1083A00085FC13280ED8391D2846FFF7B9FE044670
:1083B0001EB12846FFF7CDFE044420461837BD46BF
:1083C000BDE8F08100F1080323F00703E846ADEBB8
:1083D000030D2246411C3B686846FFF767FC69466F
:1083E0002846FFF79DFE0446C546E1E7014B002203
:1083F0009A607047DCE603200021FFF7FBBA0021FA
:10840000FFF7F0BA10B5044608462170FFF7CAFA24
:1084100000236360204610BD13B504460078FFF7C3
:10842000EEFF58B9207801904FF6FF71FFF7AAFAD6
:10843000019802B0BDE81040FFF7DEBF02B010BDEA
:108440000078FFF7D9BF0000400830B5186000245D
:1084500018688842E5B206D90134082C02D04008D9
:108460001860F5E70725024B5B5D137030BD00BF58
:10847000A8C60B002DE9F04306468FB000780C46E5
:10848000FFF7BDFF00281BDB35781422002109A867
:1084900001F053F80B23002209A92846ADF8243037
:1084A000FFF790FA9DF82D3013B19DF82C5055B17F
:1084B0000027B946B846012523795DB1C3B1002034
:1084C0000FB0BDE8F083DDF830809DF834909DF862
:1084D0003570F1E7002B35D1A368434508D18DF8FD
:1084E00020908DF82170BDF82020A3899A42E6D013
:1084F0000023A1688DF80F300A9804AB0DF10F022C
:10850000FFF7A2FF217985B989B9A36843450ED346
:108510008DF820908DF82170BDF82020A3899A4213
:1085200005D1049B434502D1C9E70029F9D10023B5
:108530000193637B00939DF80F20237B3078FFF736
:1085400049FABCE7CDE900552B462A460121F5E75B
:1085500008B50078FFF71EFAC0B208BD10B5044692
:10856000FFF708F9E060236820465B699847002818
:1085700008DAFFF7FFF8E368C01AA3689842F2D35D
:108580004FF0FF3010BD2DE9F04107460C468E1824
:108590000D46B542A5EB040807D03846FFF7DEFFCD
:1085A000031E02DB05F8013BF3E74046BDE8F0811E
:1085B00010B504460068FFF761FB204610BD10B5FA
:1085C0000446006808B1FFF759FB0023C4E90133F2
:1085D000236010BD38B504460D4600680131FFF731
:1085E00055FB10B1C4E90005012038BD10B5036882
:1085F000044623B143688B4201D3012010BD2046BD
:10860000FFF7E8FF0028F9D0A368002BF5D1226816
:108610001370F2E737B50D46114601920446FFF795
:10862000E5FF019A28B92046FFF7C9FF204603B0AD
:1086300030BDA2602946206800F071FF2268A3685F
:108640000021D154F2E7002313B5C0E900330446FA
:108650008360037341B108460191FCF70DFA01995B
:1086600002462046FFF7D6FF204602B010BD13B5E4
:10867000044659B108460191FCF7FEF901990246FA
:108680002046FFF7C7FF204602B010BDFFF797FF57
:10869000F9E708B582683AB921B10878B0FA80F0F4
:1086A000400900E0012008BD006809B90078F5E73D
:1086B000FCF7D8F9F2E7000008B5006840B100F017
:1086C00023FF51EC100BFCF75FF900EE100A08BD18
:1086D0009FED010AFBE700BF00000000054B0222EE
:1086E0001A60054B054A9A600020C3E90000FFF7B5
:1086F00019BA00BFF8E60320ECE603200000FFFFF4
:1087000013B503688DF80710DC6B01224FF0FF33BF
:108710000DF10701A04702B010BD10B40368DC6B77
:108720004FF0FF33A4465DF8044B604713B5134682
:1087300002688DF80710D46B0DF107010122A047E4
:1087400002B010BD10B54369B3F88620B3F8843089
:108750009A42044608D06369B3F88420511CA3F8F8
:1087600084101344187910BD03681B6998470028CA
:10877000F1D14FF0FF30F6E7704743691868C04306
:10878000C00F704770470000064B994210B500F1CA
:108790000C0405D0084600F09FFD002808BF002407
:1087A000204610BDDCC50B0010B5AC210446FCF71B
:1087B000C4F9204610BDAC21FCF7BFB92DE9F0414A
:1087C0004FF0000886B01C46C0F8048005460E46EF
:1087D00017464146102202A800F0AFFE631C09D0E4
:1087E0004FF47A73B4FBF3F203FB1244CDE9022891
:1087F0005C430494686910230093006802AB41F263
:10880000050240F6FF71FFF78DF8002807DAFFF741
:1088100065FA03686B60002006B0BDE8F081686906
:10882000002300683A463146FFF79CF8031EEEDB52
:108830001846F1E738B584690A4B036005467CB1F8
:108840006368013B63605BB9236820469B68984777
:10885000A368013BA3601BB923682046DB689847E7
:10886000284638BDECC60B0010B50446FFF7E2FF02
:1088700020461C21FCF761F9204610BD30B587B0B9
:10888000044601AD6846FFF76BFB0FCD04340FC4FF
:108890002B68237007B030BD70B54D69054B044699
:1088A0008C3544F8043B06460FCD0FC42B6823706B
:1088B000304670BD50C60B002DE9F0439846036862
:1088C00093B00D460024DB6A0646174698472846B3
:1088D0006B46224621460094FFF71CF80546002807
:1088E00063D1009B002B4BD05B69002B48D006A8BE
:1088F000FFF7F2FA009B5C696378022B04D1211D1B
:1089000006A8FFF7BBFF26E00A2B24D11122294637
:1089100001A800F012FEA368002B38D004F1080370
:108920000DF1040C183418685968624603C2083304
:10893000A3429446F7D1062301A90CA88DF8143060
:10894000FFF7D8FA0DF1340CBCE80F0007AC0FC4E8
:10895000DCF80030237006A8FFF7DEFA80B1336838
:1089600007ADD3F82090124B0C930FCD0DAC0FC474
:108970002B6823703A4643460CA93046C847054643
:108980000098FEF7BFFF284613B0BDE8F083E36808
:10899000002BC3D14FF6FF70D4F81090FEF79AFF6A
:1089A0008145BBD104F11401AAE72546E8E700BFE1
:1089B00050C60B0038B543691A68002A054610DA1C
:1089C000B3F88620B3F884309A420AD103681B6951
:1089D0009847044628B92B682846DB6A9847204602
:1089E00038BD0120FCE710B54369B3F88620B3F821
:1089F00084309A42044605D06369B3F88420134456
:108A0000187910BD03681B6998470028F4D14FF00E
:108A1000FF30F6E7F8B543691746B3F88620B3F898
:108A200084309A4205460E4616D06969B1F8843002
:108A3000B1F88640E41ABC4228BF3C4604332246C3
:108A40001944304600F06BFD6A69B2F88430234463
:108A5000A2F884302046F8BD03681B6998470028B7
:108A6000E3D14FF0FF34F5E742690023A2F88430E8
:108A70004269A2F8863070472DE9F0411F4603682D
:108A80000C46DB6A8AB0054616469847237DD5F822
:108A90001480042B0CBF02200A2006220121FEF7BD
:108AA00069FFC8F800006B691B68002B08DA2B68A7
:108AB0002846DB6A0024984720460AB0BDE8F081CA
:108AC0002846FFF7D1FFB7B1002303A9F8B20393FB
:108AD000ADF81030FEF7EEFE0028E8D168690623F5
:108AE0000093006803AB41F20B0240F6FF71FEF702
:108AF00019FF0028DBD11C22002103A800F01DFD76
:108B0000237D042B1DD14FF407733046ADF80C3094
:108B1000FEF7F0FEADF80E006068FEF7DBFE049095
:108B20006B691C22186803A9FEF70CFF0028BED150
:108B300004340FCC6D698C350FC523682B7001246C
:108B4000BAE740F61C233046ADF80C30FEF7D2FEF3
:108B500005AEADF80E00231D04F11407186859681E
:108B6000324603C20833BB421646F7D1D8E70000AD
:108B700030B54269B2F886308BB004462BB1B2F8FA
:108B800084209A4201D1FFF76FFF616908680028CD
:108B900018DBB1F886507F2D14D804310823C5F1B5
:108BA00080022944FEF7D6FE002813DD6369B3F87E
:108BB00086200AB9A3F884206369B3F8862010449C
:108BC000A3F886006369B3F88600B3F88430C01A4E
:108BD0000BB030BDFFF782F803680B2BF2D0FFF724
:108BE0007DF803680B2BEDD020230025CDE902355D
:108BF000FFF774F803680193084B0949009302AA30
:108C00002B463220FEF786FF63691868FEF792FE56
:108C100063694FF0FF321A60D4E700BFB7C60B009C
:108C2000B0C60B0010B5436904461868002801DB84
:108C3000FEF780FE63694FF0FF321A60606911220F
:108C400000218C3000F079FC2046BDE81040FFF791
:108C50000BBF10B5002304460160C0F88430883093
:108C6000FFF73AF9204610BD73B500234FF47A722E
:108C7000C0E901320E4A0361026043610446AC2040
:108C80000191FBF754FF051E05F10C0608D00123E6
:108C9000C5E90133074B01992B603046FFF7D9FF37
:108CA0002046C4E90565FFF7DFFE02B070BD00BFD6
:108CB000ECC60B00D0C60B0010B54FF0FF310446D8
:108CC000FFF7D2FF204610BD10B50446006800280B
:108CD00001DBFEF72FFE204610BD0C30FFF7F4BF7E
:108CE000024B1A68024B1A60704700BF44E0032031
:108CF000FCE6032070474174704708B5007CFEF71E
:108D0000B1FE20EAE07008BD08B5007CFEF782FEE7
:108D100020EAE07008BD08B5007CFEF78BFE40EA53
:108D2000E07008BD08B5007CFEF77CFE40EAE0700C
:108D300008BD007CFEF786BE37B5457C04462DB1E4
:108D4000207C03B0BDE83040FEF75CBE007C0191A2
:108D5000FEF788FE00280199F2DC284603B030BDFA
:108D600010B514210446FBF7E8FE204610BD0000B4
:108D700010B54FF47A730446084611460022C4E940
:108D80000123044B2360012320746374FEF772FEF9
:108D9000204610BD54C70B004174704770477047A0
:108DA00008B50021007CFEF78DFE40EAE07008BDAA
:108DB00008B50121007CFEF785FE40EAE07008BDA1
:108DC00008B5007CFEF776FE20EAE07008BD08B525
:108DD000007CFEF767FE20EAE07008BD13B504468C
:108DE000007C0191FEF766FE0028019901DC607CA1
:108DF00020B1207CFEF76EFE20EAE07002B010BDCC
:108E0000007CFEF76FBE10B514210446FBF795FEFB
:108E1000204610BD10B54FF47A7304460846002171
:108E2000C4E90113044B23600123207463741146C9
:108E3000FEF728FE204610BD84C70B00007C0022F0
:108E4000FEF728BE007CFEF755BE10B5142204467E
:108E5000002100F072FB204610BD000010B50F4C41
:108E600088B003A8FFF7F1FF2178BFF35B8F11F003
:108E700001010FD120460191FBF76EFE019948B127
:108E800003AA0748FFF7C6FF2046FBF76AFE05481E
:108E900000F034FB024808B010BD00BF00E703201B
:108EA00004E703209D8D0B00002240681146FEF769
:108EB00095BE002240681146FEF7B0BE0022406811
:108EC0001146FEF7BBBE40680022FEF7AFBE406809
:108ED000002281F00101FEF799BE002340681A4686
:108EE0001946FEF78BBE002340681A461946FEF766
:108EF0007DBE002240681146FEF760BE4068002239
:108F00000221FEF763BE002340681A46FEF74EBEFC
:108F1000024B04225A60024A1A60704718E7032085
:108F2000B4C70B00014B1860704700BF48E0032036
:108F300008B50B4B43B1FFF791FF03681B699847D6
:108F4000002801DDAFF30080064B43B100F09AF931
:108F500003681B699847002801DDAFF3008008BD56
:108F6000000000000000000008B5FFF7E1FFFEF779
:108F700001FC014B186008BD28E703200548064A9C
:108F8000064908B5121A00F0CAFA054B054A1A60DC
:108F900008BD00BF00F4032004F40320A8CE0B009A
:108FA00000F403201E1C279A07B5002300931A46DD
:108FB0006FF07701FEF7D8FD03B05DF804FB000009
:108FC00007B543880A2B08D0502B0BD1094B1B68DF
:108FD0004BB103B05DF804EB1847FFF7E5FF03B0B2
:108FE0005DF804FB002300931A466FF07701FEF74B
:108FF000BBFDF4E724E7032010B512480021FEF77B
:109000007DFE114B1A68114B9A42114B0CBF012285
:1090100000221A7001D0FFF7B1FFFEF79BFB044658
:1090200000F094FA0B4B13B12046AFF300800021FF
:109030000848FEF7B3FDBDE8104007480021FEF7E1
:1090400089BD00BF258F0B0000F403201E1C279A4A
:1090500020E7032000000000C18F0B00232813B578
:1090600002D9002002B010BDA0F10B03022B1AD8C8
:10907000174C2178BFF35B8F11F001010BD1204613
:109080000191FBF769FD019928B11248FFF7BAF980
:109090002046FBF766FD0F4B1878FEF78BFC002887
:1090A000DFD10120DEE7012809D800F0ABF800216C
:1090B000007CFEF7EFFB80F00100C0B2D2E7093878
:1090C0000128EED800F0DEF8007CFEF7C3FCF2E7E2
:1090D000B8E60320BCE60320232838B504460D4635
:1090E0000AD8FF2908D0FFF7B9FF28B12946204642
:1090F000BDE83840FEF74EBB38BD38B504460D46D6
:10910000FEF750FBFF2810D0062804D84D2323FA81
:1091100000F0C30709D42046FFF7A0FF28B1294675
:109120002046BDE83840FEF745BB38BD10B50446C3
:10913000FEF738FB031FDBB2012B08D92046FFF7EF
:109140008DFF20B12046BDE81040FEF73BBB00205C
:1091500010BD0D2810B504469CBF0E34A4B22046A5
:10916000FFF77CFF50B103212046FEF70BFB0328DD
:1091700004D12046BDE81040FEF734BB002010BDEE
:1091800038B504460D46FFF769FFF0B104212046CB
:10919000FEF7F8FA042805D1A9B22046BDE8384008
:1091A000FEF718BB02212046FEF7ECFA02280CD18C
:1091B0002046FEF7F7FA012801D0042805D12946F8
:1091C0002046BDE83840FEF715BB38BD70470000AB
:1091D00038B50A4B03600123044643610849202047
:1091E00000F074F8202560600549A560284600F06D
:1091F0006DF8C4E90305204638BD00BF1800010022
:10920000E8C70B0030B50E4D2978BFF35B8F11F026
:10921000010487B011D12846FBF79EFC68B168466F
:10922000FFF7D6FF6A4621460648FEF7E5FD2846C9
:10923000FBF797FC044800F061F9024807B030BD25
:109240002CE7032030E70320CD910B00704700008E
:1092500038B5044614252A46002100F06EF9258011
:109260004025074925812846258200F02FF804492A
:109270006060284600F02AF8E060204638BD00BF54
:10928000E8C70B0030B50E4D2978BFF35B8F11F0A6
:10929000010487B011D12846FBF75EFC68B101A834
:1092A000FFF7D6FF01AA21460648FFF761FD2846D1
:1092B000FBF757FC044800F021F9024807B030BD25
:1092C00044E7032048E703204D920B00FBF731BC35
:1092D00008B5FEF7F3FC0000014900F0F9B800BF43
:1092E00004C80B007FB500241023CDE902340368C5
:1092F00015469E6912686B46CDE90044B0479DF85B
:10930000043003F00603062B03BF009B2B600120F3
:10931000204604B070BD0098904214BF0120062082
:109320007047000010B5034B0360044600F0CDF811
:10933000204610BD44C80B0010B50446FFF7F2FFED
:1093400020460821FBF7F9FB204610BD2DE9F0412E
:109350001F46DDE90834DDF81880984506461546B5
:1093600007D1079900F0B4F818B165710020BDE885
:10937000F0813946304600F0ABF80028F6D00123E2
:10938000C4F800802571A371F0E738B515461C4676
:1093900000F09EF820B10823E360062325602371C6
:1093A00038BD73B505460C4601921E4600F090F894
:1093B00050B9032E08D82368019A5B6929462046D4
:1093C00002B0BDE87040184702B070BD10B5034B45
:1093D00003600446FFF7A6FF204610BDA4C80B009B
:1093E00010B50446FFF7F2FF20460C21FBF7A5FB62
:1093F000204610BDF7B5089F974205460E46144615
:109400000AD0A86802680897156A31462246AC4619
:1094100003B0BDE8F04060471946019300F058F8EA
:10942000019B0028EDD0062003B0F0BD2DE9F14FDF
:109430000D461946DDE90A4BDDE90CA681461746C3
:10944000984600F045F890B1002D3460377109DB83
:1094500061198A450CBF06210121B171002001B0BC
:10946000BDE8F08F0235F9D10123B371F6E7544519
:1094700006D15946484600F02BF808B17771EDE760
:10948000D9F808000368CDE90CA6CDE90A4BDC69E0
:109490003A4643462946A44601B0BDE8F04F60472E
:1094A0002DE9F04107460C4615461E46FFF76DFFB5
:1094B00048B9B86803689F692A4633462146BC46C6
:1094C000BDE8F0416047BDE8F0817047002070477B
:1094D000814208B50ED0406803782A2B0CD0496829
:1094E0000B782A2B08BF0131FBF7BCFAB0FA80F0E9
:1094F000400908BD0120FCE70020FAE700230146EF
:109500001A46184600F032BF002100F097BE0A222A
:10951000002100F021BF0A22002100F01DBF0A44F3
:10952000914200F1FF3300D1704710B511F8014BA3
:1095300003F8014F9142F9D110BD02440346934212
:1095400000D1704703F8011BF9E7000038B5104B54
:109550001D68AB6B0446B3B91820FEF787FB0246C3
:10956000A86320B90B4B0C484221FEF7BFFB0B4907
:109570000B4BC0E900130B4B83600B23838100214D
:109580000120C2E90401AB6B00221C615A6138BDA5
:1095900048E00320DDC80B00F4C80B000E33CDAB50
:1095A00034126DE6ECDE050010B57AB103460139E0
:1095B000841813F8010B11F8012F904201D1A34236
:1095C00001D1801A10BD0028F3D1FAE71046F9E75F
:1095D00010B50139034632B111F8014F03F8014BC0
:1095E000013A002CF7D11A440021934200D110BD5A
:1095F00003F8011BF9E770B504460D4645EC104B26
:10960000164601F00DFE51EC100B7EB1C5F30A5366
:10961000C3F16B03002B09DD1B0503F17F5500240B
:1096200005F5401522462B46FAF7B6FE70BD000040
:109630002DE9F04F2DED028B9DB01F4600231893AE
:10964000A24B13921B680593044618468846FBF705
:1096500013FA4FF0000A05464FF0000BCDF85C807E
:10966000179B1A782B2A4ED03BD80D2A34D8082ABB
:1096700034D8002A3ED000230A93179E3378302B2B
:1096800040F0B080737803F0DF03582B68D10A9B59
:10969000019318AB029700938D4A19AB17A9204686
:1096A00000F02EFF10F00707054605D0062F2CD13D
:1096B0000136002317960A93139B002B40F09085E8
:1096C0000A9BEBB152460BF1004343EC102B1DB04B
:1096D000BDEC028BBDE8F08F202ACCD1013317936B
:1096E000BEE72D2AC7D101220A925A1C17925B7835
:1096F000002BC2D1139BCDF85C80002B40F06E850F
:1097000052465B46E1E70022EEE7189A3AB135216E
:109710001AA801F090FE1899204601F04FFA013F77
:10972000042F06D8DFE807F00A0314170A00DDE962
:109730001AAB2807C0D54BF0004BBDE7DDE91AA3F3
:10974000199A23F4801302F2334243EA025BF0E7F2
:10975000DFF880B1EDE76FF0004B4FF0FF3AE8E73C
:10976000179B5A1C17925B78302BF9D0002BA3D093
:1097700001234FF000090493179B0893CDF81C9028
:109780004F460A2217980678A6F13003D9B2092964
:109790002AD905992A46FFF707FF98B300203246D9
:1097A0003D4605900346652A01D0452A18D11DB9CA
:1097B000049A02439ED00025DDF85C8008F1010286
:1097C000179298F801202B2A75D02D2A7BD04FF0C4
:1097D000000CA2F13001092940F28280CDF85C80B2
:1097E00000269DE00023C4E7082FD8BF079900F1A9
:1097F0000100DABF02FB0133079302FB093901378D
:109800001790BFE7179B5A1917925A5D002F37D050
:1098100005903D46A2F13003092B12D90123C2E77E
:10982000179B5A1C17925A780130302AF8D0A2F1AF
:109830003103082B00F2D984179B05900020089370
:109840000546303A00F1010314D0059919440591F9
:109850002B4600EB050E0A21734513D12B18082B5C
:1098600005F1010505441CDC07990A2303FB0123CC
:1098700007930023179A511C179152781846C9E78D
:109880003846D2E7082B04DC079E4E430796013387
:10989000E2E703F1010CBCF1100FD8BF01FB09F99D
:1098A000F5E7102DDCBF0A2303FB0929E1E70023BC
:1098B000059301237CE74FF0000C08F10202179298
:1098C00098F8022085E74FF0010CF6E71CCB0B005F
:1098D00054C90B000000F07F179A511C1791527861
:1098E000302AF9D0A2F1310108293FF679AFA2F16F
:1098F000300E179A0692179A511C17915278A2F1BE
:109900003006092E37D9069E891B082944F61F66A2
:1099100002DC7645A8BF7646BCF1000F00D0764247
:10992000002D4DD1049901437FF4C6AE002B7FF486
:10993000E1AE692A27D024DC492A24D04E2A7FF4BC
:10994000D9AE9F4917A801F033F800283FF4D2AEF2
:10995000179B1B78282B2DD19A491AAA17A801F01A
:109960003BF8052826D11B9BDDF868A043F0FF4B90
:109970004BF4E00BA0E60A2101FB0E2EAEF1300EF7
:10998000B9E76E2ADBE7904917A801F011F8002823
:109990003FF4B0AE179B8D49013B17A8179301F018
:1099A00007F810B9179B01331793DFF830B24FF067
:1099B000000A81E6864801F093FD5BEC10AB7BE684
:1099C000059B0798F31A002F08BF2F46102D06930A
:1099D000A846A8BF4FF01008FAF764FC092D82468C
:1099E0008B4613DD7B4B03EBC80353E91223FAF7D5
:1099F000D3FC824648468B46FAF754FC02460B4697
:109A000050465946FAF712FB82468B460F2D38DC3A
:109A1000069B002B3FF450AE24DD162B0BDC6D496A
:109A200001EBC301D1E9000152465B46FAF7B4FCF1
:109A300082468B4640E6069AC5F12503934220DB19
:109A4000644CC5F10F0504EBC50152465B46D1E9F4
:109A50000001FAF7A1FC069B5D1B04EBC504D4E9E9
:109A60000023E3E7069B16330BDB059B9E1B594B3C
:109A700003EBC606D6E9002350465946FAF7B6FD71
:109A8000D6E7069BA5EB08089844B8F1000F74DDF3
:109A900018F00F030AD04F4901EBC30152465B4651
:109AA000D1E90001FAF778FC82468B4638F00F08BE
:109AB0004FD0B8F59A7F22DD00252E4607950595F3
:109AC0002223DFF818B123604FF0000A079B002B18
:109AD0003FF4F2AD1899204601F070F80599204640
